:020000020000FC
:1000000075C096C0189518951895189539C1BAC03D
:100060004FEF4ABB44BB00271127789477277330A2
:10007000E9F37F93A2D0B2D07F917395F8CF442754
:100080004AB947E149B908957F936F934F935F93BE
:100090006FB76F937CB16F916FBF5F914F916F910D
:1000A0007F9118955D9BFECF7CB908956FB76F93D4
:1000B0006AB160696AB96F916FBF08956FB76F9346
:1000C0006AB16F766AB96F916FBF08956FB76F931A
:1000D0006AB168606AB96F916FBF08956FB76F9327
:1000E0006AB1677F6AB96F916FBF0895F8946FE541
:1000F0006DBF62E06EBF05D016D03AD049D01ED099
:10010000AFCFF89440E848B944274BBF49BF4AB93C
:100110004DB945BF4ABB47BB44BB41BB4BBB48BBCA
:1001200045BB42BB089540E44BBF42E045BF089544
:100130006FB76F9399276F916FBF1895E6E0F3E063
:10014000A0E6B0E060E1C89531960D926A95D9F7C6
:100150004BEF41BB08957F937F70E0E6F0E0E70F3F
:100160007727F71F71917B7F709572BB7F91089500
:1001700043B7487F416043BF49B74C7F426049BFA6
:10018000992708956FB76F9393956F916FBF1895E7
:1001900044274FBD4EB5487F41604EBD49B74F77AC
:1001A000406849BF5524332740E30024C8E7D0E026
:1001B000088221964A95E1F70895EAE1F3E0733069
:1001C00008F00895772319F032967A95FBCFC895F9
:1001D000102C3196C895F12DE02D0895C895302D3D
:1001E0003196C895602C3196C895702C272C319685
:1001F000C895802C3596772061F0C8E8D0E040E1C2
:10020000C8953196088221960024088221964A9545
:10021000B9F7AE2FBF2F772061F4EA2FFB2FC8E785
:10022000D0E040E1C8953196088221964A95D1F7F1
:100230000BC0C8E8D0E0E8E7F0E040E108800082C9
:10024000229631964A95D1F706D0332319F07720BC
:1002500021F3EFCF0895E8E7F0E004D025BB02D00A
:100260002BBB0895222747E000803196091608F03D
:1002700001C02160442319F0220F4A95AAF708957E
:100280006FB76F934F935F930F921F92CF93DF934C
:10029000EF93FF93332361F15394561449F555249A
:1002A000772011F1EA2FFB2FC8E8D0E000E1C895D4
:1002B000402D3196C895502D3196CF93DF931880FD
:1002C00021960880040E151EDF91CF911882219689
:1002D000088221960A9559F72A9451F4332341F064
:1002E000272C3A95909604C0332311F03A955096F6
:1002F000FF91EF91DF91CF911F900F905F914F9100
:100300006F916FBF18957B11BAB3D1E3EB31FBF35B
:10031000F9CB6A9BEAE8EAEAEAEA0320047805D026
:100320000A07140000000000FFFFFFFFFFFFFFFFB0
:10033000FFFFFFFFFFFFFFFF40F300000000000092
:1003400000000000000000000000000000000000AD
:1003500000000000000040F3C00C40F3000000006B
:10036000000000000000000000000000000000008D
:100370000000000040F3C00C0000C00C40F300007F
:10038000000000000000000000000000000000006D
:10039000000040F3C00C000000000000C00C40F35F
:1003A000000000000000000000000000000000004D
:1003B00040F3C00C00000000000000000000C00C72
:1003C00040F300000000000000000000000040F3C7
:1003D000C00C000000000000000000000000000051
:1003E000C00C40F3000000000000000040F3C00C0F
:1003F00000000000000000000000000000000000FD
:100400000000C00C40F30000000040F3C00C0000EE
:1004100000000000000000000000000000000000DC
:1004200000000000C00C40F340F3C00C00000000CE
:1004300000000000000000000000000000000000BC
:10044000000000000000C00CC00C00000000000014
:10045000000000000000000000000000000000009C
:10046000000000000000000000000000000000008C
:1004700000000000000000000A0714000000000057
:10048000CE97CFB9C733B78F70E290F5F5D9BE21BB
:100490002602A7FBB4F9800040FF8C06B4FB800362
:1004A000E7FA27F900FBE7F8CDF98C008DFB9905F9
:1004B000A7F766075900B4FCDAFD4DFBF302C00054
:1004C0008008990173096602DAFFB4F980011AFD08
:1004D000E60140F9800574FA3304260380014001E7
:1004E0009AFAA606B4FB1902CC0619018C0434FD55
:1004F000A6006605E7FC8009CDF4C001F4F75AFEBA
:10050000B3045AF38C033302E7F5CDFECDF6CC03EA
:10051000A7FCA7FA3301E7FFCC089900CC08C0F785
:100520004002260BF4FA67F40C071AFD0C05CDFD0A
:100530004006B308D901B4FB73038DF980FE400374
:1005400034FE4DFCB30100055AF92600DAFE6607B9
:100550006602F4F900FC67FE74F80DFFC0FD33007D
:10056000B4FE27FEDAFA99066609CDFE73061AF77D
:10057000A7F8990040028C04B301A7FDCC019905AE
:10058000A604260680FE40F980F8C00580F7A60A7A
:100590006600CDFF00FEE7F7DAF9590427FD00FDFC
:1005A0009AFB0DF8D90140FD4DFBF302F4FE67F50F
:1005B0004C05990040046608A6090DFEE6035AFEA4
:1005C000E7FD73077304E6090C0C1901CC06F4FF70
:1005D0000A07140000000000FF2AFF52FFA19272D8
:1005E000FFFFFFAEFFD7FFFF40F3E60140F380FFC0
:1005F00040F380FF34FA00060000000000008C0188
:1006000000004C01000040F3C00C0C05C00C4DFD77
:10061000C00C9AFA8C01F4F600005AF90000CDFEE5
:1006200000009AF5E7F9C00C00009903000080046F
:100630000000A7FE190919015AF9A6065AF9CDF8C2
:1006400074FA4001190680F800004DFE0000CDFE4E
:100650000000190AF4F70009A6060000A606E60441
:100660008C05A60740F38007000080FE000040FDD7
:100670000000E7FB4C0427FD000040F300001AFED9
:100680000DF61AF6C00C0DF99AF98DF79AF9CC0708
:100690009AF99AFF66010C0240F3C00C40F30C0576
:1006A000F30966080000F306660699036606CDFAAC
:1006B0006606730534F6A7FAC00C0000C00C4DF7AF
:1006C00040F34DFE000000009AF927FE9AF9C0FFA2
:1006D0009AF94DF5D9095AFC000000000000330AD0
:1006E000C00C5AFA000040F3A7F9B4FF6606B4FE46
:1006F000660666011AFBA602000000000000A7FBC8
:10070000000019050000C00CC00CA7FF00009901F3
:100710000000800559021900000000000000A60139
:080720000000F30300000000DB
:00000001FF
